:020000040000FA
:060000008AEF04F012007B
:020006000000F8
:08000800000EE66EE66AB8EC9A
:1000100002F0E552E552F3CF0BF0F4CF0CF0F3CF42
:10002000E6FFF4CFE6FF010EE66EE66AB8EC02F0FA
:10003000E552E552F3CF0DF0F4CF0EF0F3CFE6FF2B
:10004000F4CFE6FF020EE66EE66AB8EC02F0E55287
:10005000E552F3CF0FF0F4CF10F0F3CFE6FFF4CF7B
:10006000E6FF49D8116E060EE15E1150060EE66EEF
:10007000E66AB8EC02F0E552E552F3CF0BF0F4CFAC
:100080000CF0F3CFE6FFF4CFE6FF050EE66EE66A6E
:10009000B8EC02F0E552E552F3CF0DF0F4CF0EF0DC
:1000A000F3CFE6FFF4CFE6FF040EE66EE66AB8ECA7
:1000B00002F0E552E552F3CF0FF0F4CF10F0F3CF9A
:1000C000E6FFF4CFE6FFCBD8116E060EE15E1150CD
:1000D000030EE66EE66AB8EC02F0E552E552F3CFA5
:1000E0000BF0F4CF0CF0F3CFE6FFF4CFE6FF13D91B
:1000F000E552E5521200D9CFE6FFE1CFD9FFFD0E60
:10010000DBCFE6FFFE0EDBCFE6FF65D9E552E55219
:100110000001030ED8808C55000E8D5542E2070E6B
:100120008C1901E18D5102E0000E01D0010E0B6E21
:10013000060E8C1901E18D5102E0000E01D0010E76
:100140000B1007E0CF0EE66E44EC03F0E552500EC4
:1001500019D0050E8C1901E18D5102E0000E01D07D
:10016000010E0B6E040E8C1901E18D5102E0000EA0
:1001700001D0010E0B1024E0CF0EE66E44EC03F02C
:10018000E552410EE66E2FEC03F0E5524D0EE66EA1
:100190002FEC03F0E552010E00018C158C6F8D6B76
:1001A0000FD0CF0EE66E44EC03F0E552200EE66E63
:1001B0002FEC03F0E552200EE66E2FEC03F0E55233
:1001C000C60EE66E44EC03F0E552300E00018C25BD
:1001D000E66E2FEC03F0E552300E00018A25E66E44
:1001E0002FEC03F0E552C90EE66E44EC03F0E55245
:1001F000FB0EDBCFE6FFFC0EDBCFE6FFECD8E552D3
:10020000E552300E00018C25E66E2FEC03F0E5522E
:10021000300E00018A25E66E2FEC03F0E552CC0E7D
:10022000E66E44EC03F0E552F90EDBCFE6FFFA0E82
:10023000DBCFE6FFD0D8E552E552300E00018C2529
:10024000E66E2FEC03F0E552300E00018A25E66ED3
:100250002FEC03F0E552E552E7CFD9FF1200D9CFDA
:10026000E6FFE1CFD9FF9A0EE66E44EC03F0E552CB
:10027000FD0EDBCFE6FFFE0EDBCFE6FFACD8E5528E
:10028000E552300E00018C25E66E2FEC03F0E552AE
:10029000300E00018A25E66E2FEC03F0E5529D0E2C
:1002A000E66E44EC03F0E552FB0EDBCFE6FFFC0EFE
:1002B000DBCFE6FF90D8E552E552300E00018C25E9
:1002C000E66E2FEC03F0E552300E00018A25E66E53
:1002D0002FEC03F0E552A20EE66E44EC03F0E5527B
:1002E000F90EDBCFE6FFFA0EDBCFE6FF74D8E5525E
:1002F000E552300E00018C25E66E2FEC03F0E5523E
:10030000300E00018A25E66E2FEC03F0E552E5522F
:10031000E7CFD9FF1200D9CFE6FFE1CFD9FFD90E41
:10032000E66E44EC03F0E552200EE66E2FEC03F08F
:10033000E552DA0EE66E44EC03F0E552FD0EDBCF3B
:1003400006F0FE0EDBCF07F0070E061801E107509E
:1003500036E0060E061801E107502DE0050E0618DE
:1003600001E1075024E0040E061801E107501BE0EC
:10037000030E061801E1075012E0020E061801E113
:10038000075009E0010E061822E1075020E17C0E1B
:10039000E66E080E17D0750EE66E080E13D06D0EC1
:1003A000E66E080E0FD0630EE66E080E0BD05A0EE6
:1003B000E66E080E07D0530EE66E080E03D04A0E06
:1003C000E66E080EE66E59EC03F0E552E552E55292
:1003D000E7CFD9FF1200D9CFE6FFE1CFD9FFFD0E5D
:1003E000DBCF0BF0FE0EDBCF0CF0040ED8900C32FE
:1003F0000B32E804FBE10BC08CF00CC08DF0FD0E5D
:10040000DBCF8AF0FE0EDBCF8BF00F0E00018A17D8
:0C041000000E8B17E552E7CFD9FF120059
:04041C00800EE66EFA
:1004200044EC03F0E552980EE66E080EE66E59ECC9
:1004300003F0E552E552C00EE66E44EC03F0E552DF
:10044000910EE66E080EE66E59EC03F0E552E552A9
:10045000C80EE66E44EC03F0E5523A0EE66E2FEC61
:1004600003F0E552CB0EE66E44EC03F0E5523A0E93
:10047000E66E2FEC03F0E552940EE66E44EC03F0CA
:10048000E5528A0EE66E080EE66E59EC03F0E55270
:10049000E5529C0EE66E44EC03F0E5522F0EE66E3C
:1004A0002FEC03F0E5529F0EE66E44EC03F0E552AC
:1004B0002F0EE66E2FEC03F0E552320EE66E2FECB7
:1004C00003F0E552300EE66E2FEC03F0E552D40E49
:1004D000E66E44EC03F0E552830EE66E080EE66E1F
:1004E00059EC03F0E552E5521200D9EC03F0D00EBE
:1004F000E66EE66AEDEC03F0E552E552000EE66EBC
:10050000E66AEDEC03F0E552E552000EE66EE66AAF
:10051000EDEC03F0E552E552000EE66EE66AEDEC16
:1005200003F0E552E552010EE66EE66AEDEC03F0EB
:10053000E552E552010EE66EE66AEDEC03F0E55297
:10054000E552010EE66EE66AEDEC03F0E552E55287
:10055000010EE66EE66AEDEC03F0E552E552000EA0
:10056000E66EE66AEDEC03F0E552E552FBEF03F0D0
:10057000D9CFE6FFE1CFD9FF020EE126D9EC03F097
:10058000D00EE66EE66AEDEC03F0E552E552FD0EA4
:10059000DBCFE6FFFE0EDBCFE6FFEDEC03F0E5522E
:1005A000E552E0EC03F0D10EE66EE66AEDEC03F006
:1005B000E552E552C58A02EC04F0F3CFDEFFF4CF3A
:1005C000DDFFFBEC03F0DECF0BF0DDCF0CF00BC05A
:1005D000F3FF0CC0F4FF020EE15C02E2E16AE552B7
:1005E000E16EE552E7CFD9FF1200D9CFE6FFE1CFA8
:1005F000D9FFD9EC03F0D00EE66EE66AEDEC03F01D
:10060000E552E552FD0EDBCFE6FFFE0EDBCFE6FF47
:10061000EDEC03F0E552E552FB0EDBCFE6FFFC0EFE
:10062000DBCFE6FFEDEC03F0E552E552FBEC03F027
:08063000E552E7CFD9FF1200EB
:08063800956A946A380EE66E23
:1006400023D8E552010EE66E1FD8E552060EE66E7F
:100650001BD8E5520F0EE66E17D8E5521200D9CF1F
:10066000E6FFE1CFD9FF48D8828082928284FE0ED5
:10067000DB508C6E320EE66E6AEC04F0E55282942A
:10068000E552E7CFD9FF1200D9CFE6FFE1CFD9FF7E
:1006900033D8829082928284FE0EDB508C6E320EB2
:1006A000E66E6AEC04F0E5528294E552E7CFD9FF9A
:1006B0001200D9CFE6FFE1CFD9FFFD0EDBCFF6FF69
:1006C000FE0EDBCFF7FF0800F55012E015D8FD0E47
:1006D000DBCFF6FFFE0EDBCFF7FF0800F550E66E2E
:1006E000BEDFE552FD0EDB2AFE0EE7E3DB2AE5D78F
:1006F000E552E7CFD9FF1200958E829082828284E4
:10070000320EE66E6AEC04F0E55283BEFED7959E8B
:0407100082941200BD
:0C071400060EF66E000EF76E000EF86E7A
:1007200000010900F550856F0900F550866F03E15F
:10073000856701D03DD00900F550806F0900F55064
:10074000816F0900F550826F09000900F550E96ECC
:100750000900F550EA6E090009000900F550836FA1
:100760000900F550846F09000900F6CF87F0F7CF34
:1007700088F0F8CF89F080C0F6FF81C0F7FF82C013
:10078000F8FF0001835302E1845307E00900F550AC
:10079000EE6E8307F8E28407F9D787C0F6FF88C0BA
:1007A000F7FF89C0F8FF00018507000E865BBFD701
:0207B000120035
:0E07B200948694889E96C5809EA6FED712005F
:1007C0009E96C5829EA6FED712009E96D00EC96E3A
:1007D0009EA6FED7C5BCFED71200D9CFE6FFE1CF5B
:1007E000D9FF9E96FD0EDB50C96E9EA6FED7E55240
:1007F000E7CFD9FF12009E96C5849EA6FED7949699
:1008000094981200D9CFE6FFE1CFD9FF020EE1267E
:100810009E96C5869EA6FED7C950DE6EDD6A9E9660
:10082000C5889EA6FED7DECF0BF0DDCF0CF00BC047
:10083000F3FF0CC0F4FF020EE15C02E2E16AE55254
:0A084000E16EE552E7CFD9FF120088
:06084A0053617475726435
:1008500061790046726964617900546875727364E5
:100860006179005765646E657364617900547565DC
:1008700073646179004D6F6E6461790053756E64C5
:10088000617900446179203A2000446174653A201E
:100890000054696D653A2000202020204469676972
:0D08A00074616C20436C6F636B202020009E
:0208AE00310E09
:1008B000C86E280EC66EC78E0F0EC16E1CEC03F0FC
:1008C0000C0EE66E44EC03F0E5520EEC02F004EC84
:0408D00000F0FDD760
:0C08D400FF0EE350126E480E01D04C0ED7
:1008E000E76EE72EFED7E76AE72EFED7122EF7D780
:0408F00000001200F2
:0C08F400000EF36E00EE00F0060E01D8BE
:100900001200EA6002D0EE6AFCD7F350E9601200F0
:04091000EE6AFCD7B8
:0C09140015EE00F025EE00F0F86A0A9CD9
:100920008AEC03F098EC04F057EC04F0FBD71200CB
:020930001200B3
:020000040030CA
:0100010042BC
:010003001EDE
:010006008178
:00000001FF
